{
  "transactions": [
    {
      "hash": "0x4e63a8f116c5c8738f22ff88a8ed8b47b9f78cae8687d02635f2f95ec06f9e25",
      "transactionType": "CALL",
      "contractName": null,
      "contractAddress": "0x000000000004444c5dc75cb358380d2e3de08a90",
      "function": "initialize((address,address,uint24,int24,address),uint160)",
      "arguments": [
        "(0xA0b86991c6218b36c1d19D4a2e9Eb0cE3606eB48, 0xC02aaA39b223FE8D0A0e5C4F27eAD9083C756Cc2, 3000, 60, 0x55De5339eA7fF2B00A83E1c3ba7a8C7da181c088)",
        "79228162514264337593543950336"
      ],
      "transaction": {
        "from": "0x7bdacfe089db39fae6fa57c213ee9811f4c54bb3",
        "to": "0x000000000004444c5dc75cb358380d2e3de08a90",
        "gas": "0x127b6",
        "value": "0x0",
        "input": "0x6276cbbe000000000000000000000000a0b86991c6218b36c1d19d4a2e9eb0ce3606eb48000000000000000000000000c02aaa39b223fe8d0a0e5c4f27ead9083c756cc20000000000000000000000000000000000000000000000000000000000000bb8000000000000000000000000000000000000000000000000000000000000003c00000000000000000000000055de5339ea7ff2b00a83e1c3ba7a8c7da181c0880000000000000000000000000000000000000001000000000000000000000000",
        "nonce": "0x8",
        "chainId": "0x8"
      },
      "additionalContracts": [],
      "isFixedGasLimit": false
    }
  ],
  "receipts": [
    {
      "status": "0x1",
      "cumulativeGasUsed": "0xca33",
      "logs": [
        {
          "address": "0x000000000004444c5dc75cb358380d2e3de08a90",
          "topics": [
            "0xdd466e674ea557f56295e2d0218a125ea4b4f0f6f3307b95f85e6110838d6438",
            "0x235f6fe674150e0490e8e95b06b5dca3febb4c52fca06e7fc9360ac8aa02a581",
            "0x000000000000000000000000a0b86991c6218b36c1d19d4a2e9eb0ce3606eb48",
            "0x000000000000000000000000c02aaa39b223fe8d0a0e5c4f27ead9083c756cc2"
          ],
          "data": "0x0000000000000000000000000000000000000000000000000000000000000bb8000000000000000000000000000000000000000000000000000000000000003c00000000000000000000000055de5339ea7ff2b00a83e1c3ba7a8c7da181c08800000000000000000000000000000000000000010000000000000000000000000000000000000000000000000000000000000000000000000000000000000000",
          "blockHash": "0xe4ddbc639d6bb9e838f3e3f03ba8112a5a6e630f4426760d1129d48cc2ab4e6d",
          "blockNumber": "0x169fae7",
          "transactionHash": "0x4e63a8f116c5c8738f22ff88a8ed8b47b9f78cae8687d02635f2f95ec06f9e25",
          "transactionIndex": "0x0",
          "logIndex": "0x0",
          "removed": false
        }
      ],
      "logsBloom": "0x00000000000000000000000000000000000000000000000000000000000000000000000020000000000002000000000000000000000000000000000000000000000000000000000000000000000000800000000000000000000000000000000000000000000000000000000000000000000000000000000000000000000000000000000000010008000000400000000200000001000000000000000000200000000000000000000000000000100000000000000000000000000000000000000000000800000000000000000000080000000000000000000000000000000000000000000000000000020000000000000004000000000000002000000000000000",
      "type": "0x2",
      "transactionHash": "0x4e63a8f116c5c8738f22ff88a8ed8b47b9f78cae8687d02635f2f95ec06f9e25",
      "transactionIndex": "0x0",
      "blockHash": "0xe4ddbc639d6bb9e838f3e3f03ba8112a5a6e630f4426760d1129d48cc2ab4e6d",
      "blockNumber": "0x169fae7",
      "gasUsed": "0xca33",
      "effectiveGasPrice": "0x2",
      "blobGasUsed": "0x0",
      "from": "0x7bdacfe089db39fae6fa57c213ee9811f4c54bb3",
      "to": "0x000000000004444c5dc75cb358380d2e3de08a90",
      "contractAddress": null
    }
  ],
  "libraries": [],
  "pending": [],
  "returns": {},
  "timestamp": 1762728534141,
  "chain": 8,
  "commit": "31869be"
}